{
  "_format": "hh-sol-artifact-1",
  "contractName": "CertificateVerifier",
  "sourceName": "contracts/CertificateVerifier.sol",
  "abi": [
    {
      "inputs": [],
      "stateMutability": "nonpayable",
      "type": "constructor"
    },
    {
      "anonymous": false,
      "inputs": [
        {
          "indexed": false,
          "internalType": "string",
          "name": "certificateNumber",
          "type": "string"
        },
        {
          "indexed": true,
          "internalType": "address",
          "name": "recipient",
          "type": "address"
        },
        {
          "indexed": false,
          "internalType": "string",
          "name": "courseId",
          "type": "string"
        },
        {
          "indexed": false,
          "internalType": "uint256",
          "name": "issuedAt",
          "type": "uint256"
        }
      ],
      "name": "CertificateIssued",
      "type": "event"
    },
    {
      "anonymous": false,
      "inputs": [
        {
          "indexed": false,
          "internalType": "string",
          "name": "certificateNumber",
          "type": "string"
        },
        {
          "indexed": false,
          "internalType": "uint256",
          "name": "revokedAt",
          "type": "uint256"
        }
      ],
      "name": "CertificateRevoked",
      "type": "event"
    },
    {
      "inputs": [
        {
          "internalType": "address",
          "name": "issuer",
          "type": "address"
        }
      ],
      "name": "addIssuer",
      "outputs": [],
      "stateMutability": "nonpayable",
      "type": "function"
    },
    {
      "inputs": [
        {
          "internalType": "address",
          "name": "",
          "type": "address"
        }
      ],
      "name": "authorizedIssuers",
      "outputs": [
        {
          "internalType": "bool",
          "name": "",
          "type": "bool"
        }
      ],
      "stateMutability": "view",
      "type": "function"
    },
    {
      "inputs": [
        {
          "internalType": "string",
          "name": "",
          "type": "string"
        }
      ],
      "name": "certificates",
      "outputs": [
        {
          "internalType": "string",
          "name": "certificateNumber",
          "type": "string"
        },
        {
          "internalType": "address",
          "name": "issuer",
          "type": "address"
        },
        {
          "internalType": "address",
          "name": "recipient",
          "type": "address"
        },
        {
          "internalType": "uint256",
          "name": "issuedAt",
          "type": "uint256"
        },
        {
          "internalType": "string",
          "name": "courseId",
          "type": "string"
        },
        {
          "internalType": "string",
          "name": "courseName",
          "type": "string"
        },
        {
          "internalType": "string",
          "name": "recipientName",
          "type": "string"
        },
        {
          "internalType": "bool",
          "name": "isValid",
          "type": "bool"
        }
      ],
      "stateMutability": "view",
      "type": "function"
    },
    {
      "inputs": [
        {
          "internalType": "string",
          "name": "certificateNumber",
          "type": "string"
        },
        {
          "internalType": "address",
          "name": "recipient",
          "type": "address"
        },
        {
          "internalType": "string",
          "name": "courseId",
          "type": "string"
        },
        {
          "internalType": "string",
          "name": "courseName",
          "type": "string"
        },
        {
          "internalType": "string",
          "name": "recipientName",
          "type": "string"
        }
      ],
      "name": "issueCertificate",
      "outputs": [],
      "stateMutability": "nonpayable",
      "type": "function"
    },
    {
      "inputs": [],
      "name": "owner",
      "outputs": [
        {
          "internalType": "address",
          "name": "",
          "type": "address"
        }
      ],
      "stateMutability": "view",
      "type": "function"
    },
    {
      "inputs": [
        {
          "internalType": "address",
          "name": "issuer",
          "type": "address"
        }
      ],
      "name": "removeIssuer",
      "outputs": [],
      "stateMutability": "nonpayable",
      "type": "function"
    },
    {
      "inputs": [
        {
          "internalType": "string",
          "name": "certificateNumber",
          "type": "string"
        }
      ],
      "name": "revokeCertificate",
      "outputs": [],
      "stateMutability": "nonpayable",
      "type": "function"
    },
    {
      "inputs": [
        {
          "internalType": "string",
          "name": "certificateNumber",
          "type": "string"
        }
      ],
      "name": "verifyCertificate",
      "outputs": [
        {
          "internalType": "bool",
          "name": "exists",
          "type": "bool"
        },
        {
          "internalType": "bool",
          "name": "isValid",
          "type": "bool"
        },
        {
          "internalType": "address",
          "name": "issuer",
          "type": "address"
        },
        {
          "internalType": "address",
          "name": "recipient",
          "type": "address"
        },
        {
          "internalType": "uint256",
          "name": "issuedAt",
          "type": "uint256"
        },
        {
          "internalType": "string",
          "name": "courseId",
          "type": "string"
        },
        {
          "internalType": "string",
          "name": "courseName",
          "type": "string"
        },
        {
          "internalType": "string",
          "name": "recipientName",
          "type": "string"
        }
      ],
      "stateMutability": "view",
      "type": "function"
    }
  ],
  "bytecode": "0x608060405234801561001057600080fd5b5033600160006101000a81548173ffffffffffffffffffffffffffffffffffffffff021916908373ffffffffffffffffffffffffffffffffffffffff1602179055506001600260003373ffffffffffffffffffffffffffffffffffffffff1673ffffffffffffffffffffffffffffffffffffffff16815260200190815260200160002060006101000a81548160ff021916908315150217905550611ac5806100b96000396000f3fe608060405234801561001057600080fd5b50600436106100885760003560e01c80638b23d8751161005b5780638b23d875146100fd5780638da5cb5b146101345780638f2b91ea14610152578063f731fa0f1461018957610088565b8063142e15421461008d57806320694db0146100a957806347bc7093146100c55780635b1146bd146100e1575b600080fd5b6100a760048036038101906100a2919061109d565b6101b9565b005b6100c360048036038101906100be9190611144565b61038b565b005b6100df60048036038101906100da9190611144565b610476565b005b6100fb60048036038101906100f69190611171565b610561565b005b6101176004803603810190610112919061109d565b610843565b60405161012b98979695949392919061131e565b60405180910390f35b61013c610c32565b60405161014991906113b1565b60405180910390f35b61016c6004803603810190610167919061109d565b610c58565b6040516101809897969594939291906113cc565b60405180910390f35b6101a3600480360381019061019e9190611144565b610f23565b6040516101b09190611466565b60405180910390f35b600260003373ffffffffffffffffffffffffffffffffffffffff1673ffffffffffffffffffffffffffffffffffffffff16815260200190815260200160002060009054906101000a900460ff16610245576040517f08c379a000000000000000000000000000000000000000000000000000000000815260040161023c906114f3565b60405180910390fd5b60008082604051610256919061154f565b908152602001604051809103902060030154116102a8576040517f08c379a000000000000000000000000000000000000000000000000000000000815260040161029f906115b2565b60405180910390fd5b6000816040516102b8919061154f565b908152602001604051809103902060070160009054906101000a900460ff16610316576040517f08c379a000000000000000000000000000000000000000000000000000000000815260040161030d9061161e565b60405180910390fd5b60008082604051610327919061154f565b908152602001604051809103902060070160006101000a81548160ff0219169083151502179055507f57bf3aad622f3cf905e8c86d1e40e1de99f3ea3a1c14decf97a8671c24fbe557814260405161038092919061163e565b60405180910390a150565b600160009054906101000a900473ffffffffffffffffffffffffffffffffffffffff1673ffffffffffffffffffffffffffffffffffffffff163373ffffffffffffffffffffffffffffffffffffffff161461041b576040517f08c379a0000000000000000000000000000000000000000000000000000000008152600401610412906116e0565b60405180910390fd5b6001600260008373ffffffffffffffffffffffffffffffffffffffff1673ffffffffffffffffffffffffffffffffffffffff16815260200190815260200160002060006101000a81548160ff02191690831515021790555050565b600160009054906101000a900473ffffffffffffffffffffffffffffffffffffffff1673ffffffffffffffffffffffffffffffffffffffff163373ffffffffffffffffffffffffffffffffffffffff1614610506576040517f08c379a00000000000000000000000000000000000000000000000000000000081526004016104fd906116e0565b60405180910390fd5b6000600260008373ffffffffffffffffffffffffffffffffffffffff1673ffffffffffffffffffffffffffffffffffffffff16815260200190815260200160002060006101000a81548160ff02191690831515021790555050565b600260003373ffffffffffffffffffffffffffffffffffffffff1673ffffffffffffffffffffffffffffffffffffffff16815260200190815260200160002060009054906101000a900460ff166105ed576040517f08c379a00000000000000000000000000000000000000000000000000000000081526004016105e4906114f3565b60405180910390fd5b600080866040516105fe919061154f565b90815260200160405180910390206003015414610650576040517f08c379a00000000000000000000000000000000000000000000000000000000081526004016106479061174c565b60405180910390fd5b6040518061010001604052808681526020013373ffffffffffffffffffffffffffffffffffffffff1681526020018573ffffffffffffffffffffffffffffffffffffffff168152602001428152602001848152602001838152602001828152602001600115158152506000866040516106c9919061154f565b908152602001604051809103902060008201518160000190816106ec9190611978565b5060208201518160010160006101000a81548173ffffffffffffffffffffffffffffffffffffffff021916908373ffffffffffffffffffffffffffffffffffffffff16021790555060408201518160020160006101000a81548173ffffffffffffffffffffffffffffffffffffffff021916908373ffffffffffffffffffffffffffffffffffffffff16021790555060608201518160030155608082015181600401908161079a9190611978565b5060a08201518160050190816107b09190611978565b5060c08201518160060190816107c69190611978565b5060e08201518160070160006101000a81548160ff0219169083151502179055509050508373ffffffffffffffffffffffffffffffffffffffff167f88711ee89cbbf9444c2f91860526961aa2124ef8aeb7e6aea51ecffc1476153986854260405161083493929190611a4a565b60405180910390a25050505050565b600080600080600060608060606000808a604051610861919061154f565b90815260200160405180910390206040518061010001604052908160008201805461088b9061179b565b80601f01602080910402602001604051908101604052809291908181526020018280546108b79061179b565b80156109045780601f106108d957610100808354040283529160200191610904565b820191906000526020600020905b8154815290600101906020018083116108e757829003601f168201915b505050505081526020016001820160009054906101000a900473ffffffffffffffffffffffffffffffffffffffff1673ffffffffffffffffffffffffffffffffffffffff1673ffffffffffffffffffffffffffffffffffffffff1681526020016002820160009054906101000a900473ffffffffffffffffffffffffffffffffffffffff1673ffffffffffffffffffffffffffffffffffffffff1673ffffffffffffffffffffffffffffffffffffffff168152602001600382015481526020016004820180546109d39061179b565b80601f01602080910402602001604051908101604052809291908181526020018280546109ff9061179b565b8015610a4c5780601f10610a2157610100808354040283529160200191610a4c565b820191906000526020600020905b815481529060010190602001808311610a2f57829003601f168201915b50505050508152602001600582018054610a659061179b565b80601f0160208091040260200160405190810160405280929190818152602001828054610a919061179b565b8015610ade5780601f10610ab357610100808354040283529160200191610ade565b820191906000526020600020905b815481529060010190602001808311610ac157829003601f168201915b50505050508152602001600682018054610af79061179b565b80601f0160208091040260200160405190810160405280929190818152602001828054610b239061179b565b8015610b705780601f10610b4557610100808354040283529160200191610b70565b820191906000526020600020905b815481529060010190602001808311610b5357829003601f168201915b505050505081526020016007820160009054906101000a900460ff16151515158152505090506000816060015103610bf05760008060008060006040518060200160405280600081525060405180602001604052806000815250604051806020016040528060008152509850985098509850985098509850985050610c27565b60018160e0015182602001518360400151846060015185608001518660a001518760c0015198509850985098509850985098509850505b919395975091939597565b600160009054906101000a900473ffffffffffffffffffffffffffffffffffffffff1681565b600081805160208101820180518482526020830160208501208183528095505050505050600091509050806000018054610c919061179b565b80601f0160208091040260200160405190810160405280929190818152602001828054610cbd9061179b565b8015610d0a5780601f10610cdf57610100808354040283529160200191610d0a565b820191906000526020600020905b815481529060010190602001808311610ced57829003601f168201915b5050505050908060010160009054906101000a900473ffffffffffffffffffffffffffffffffffffffff16908060020160009054906101000a900473ffffffffffffffffffffffffffffffffffffffff1690806003015490806004018054610d719061179b565b80601f0160208091040260200160405190810160405280929190818152602001828054610d9d9061179b565b8015610dea5780601f10610dbf57610100808354040283529160200191610dea565b820191906000526020600020905b815481529060010190602001808311610dcd57829003601f168201915b505050505090806005018054610dff9061179b565b80601f0160208091040260200160405190810160405280929190818152602001828054610e2b9061179b565b8015610e785780601f10610e4d57610100808354040283529160200191610e78565b820191906000526020600020905b815481529060010190602001808311610e5b57829003601f168201915b505050505090806006018054610e8d9061179b565b80601f0160208091040260200160405190810160405280929190818152602001828054610eb99061179b565b8015610f065780601f10610edb57610100808354040283529160200191610f06565b820191906000526020600020905b815481529060010190602001808311610ee957829003601f168201915b5050505050908060070160009054906101000a900460ff16905088565b60026020528060005260406000206000915054906101000a900460ff1681565b6000604051905090565b600080fd5b600080fd5b600080fd5b600080fd5b6000601f19601f8301169050919050565b7f4e487b7100000000000000000000000000000000000000000000000000000000600052604160045260246000fd5b610faa82610f61565b810181811067ffffffffffffffff82111715610fc957610fc8610f72565b5b80604052505050565b6000610fdc610f43565b9050610fe88282610fa1565b919050565b600067ffffffffffffffff82111561100857611007610f72565b5b61101182610f61565b9050602081019050919050565b82818337600083830152505050565b600061104061103b84610fed565b610fd2565b90508281526020810184848401111561105c5761105b610f5c565b5b61106784828561101e565b509392505050565b600082601f83011261108457611083610f57565b5b813561109484826020860161102d565b91505092915050565b6000602082840312156110b3576110b2610f4d565b5b600082013567ffffffffffffffff8111156110d1576110d0610f52565b5b6110dd8482850161106f565b91505092915050565b600073ffffffffffffffffffffffffffffffffffffffff82169050919050565b6000611111826110e6565b9050919050565b61112181611106565b811461112c57600080fd5b50565b60008135905061113e81611118565b92915050565b60006020828403121561115a57611159610f4d565b5b60006111688482850161112f565b91505092915050565b600080600080600060a0868803121561118d5761118c610f4d565b5b600086013567ffffffffffffffff8111156111ab576111aa610f52565b5b6111b78882890161106f565b95505060206111c88882890161112f565b945050604086013567ffffffffffffffff8111156111e9576111e8610f52565b5b6111f58882890161106f565b935050606086013567ffffffffffffffff81111561121657611215610f52565b5b6112228882890161106f565b925050608086013567ffffffffffffffff81111561124357611242610f52565b5b61124f8882890161106f565b9150509295509295909350565b60008115159050919050565b6112718161125c565b82525050565b61128081611106565b82525050565b6000819050919050565b61129981611286565b82525050565b600081519050919050565b600082825260208201905092915050565b60005b838110156112d95780820151818401526020810190506112be565b60008484015250505050565b60006112f08261129f565b6112fa81856112aa565b935061130a8185602086016112bb565b61131381610f61565b840191505092915050565b600061010082019050611334600083018b611268565b611341602083018a611268565b61134e6040830189611277565b61135b6060830188611277565b6113686080830187611290565b81810360a083015261137a81866112e5565b905081810360c083015261138e81856112e5565b905081810360e08301526113a281846112e5565b90509998505050505050505050565b60006020820190506113c66000830184611277565b92915050565b60006101008201905081810360008301526113e7818b6112e5565b90506113f6602083018a611277565b6114036040830189611277565b6114106060830188611290565b818103608083015261142281876112e5565b905081810360a083015261143681866112e5565b905081810360c083015261144a81856112e5565b905061145960e0830184611268565b9998505050505050505050565b600060208201905061147b6000830184611268565b92915050565b7f4f6e6c7920617574686f72697a656420697373756572732063616e2063616c6c60008201527f20746869732066756e6374696f6e000000000000000000000000000000000000602082015250565b60006114dd602e836112aa565b91506114e882611481565b604082019050919050565b6000602082019050818103600083015261150c816114d0565b9050919050565b600081905092915050565b60006115298261129f565b6115338185611513565b93506115438185602086016112bb565b80840191505092915050565b600061155b828461151e565b915081905092915050565b7f436572746966696361746520646f6573206e6f74206578697374000000000000600082015250565b600061159c601a836112aa565b91506115a782611566565b602082019050919050565b600060208201905081810360008301526115cb8161158f565b9050919050565b7f436572746966696361746520697320616c7265616479207265766f6b65640000600082015250565b6000611608601e836112aa565b9150611613826115d2565b602082019050919050565b60006020820190508181036000830152611637816115fb565b9050919050565b6000604082019050818103600083015261165881856112e5565b90506116676020830184611290565b9392505050565b7f4f6e6c79206f776e65722063616e2063616c6c20746869732066756e6374696f60008201527f6e00000000000000000000000000000000000000000000000000000000000000602082015250565b60006116ca6021836112aa565b91506116d58261166e565b604082019050919050565b600060208201905081810360008301526116f9816116bd565b9050919050565b7f436572746966696361746520616c726561647920657869737473000000000000600082015250565b6000611736601a836112aa565b915061174182611700565b602082019050919050565b6000602082019050818103600083015261176581611729565b9050919050565b7f4e487b7100000000000000000000000000000000000000000000000000000000600052602260045260246000fd5b600060028204905060018216806117b357607f821691505b6020821081036117c6576117c561176c565b5b50919050565b60008190508160005260206000209050919050565b60006020601f8301049050919050565b600082821b905092915050565b60006008830261182e7fffffffffffffffffffffffffffffffffffffffffffffffffffffffffffffffff826117f1565b61183886836117f1565b95508019841693508086168417925050509392505050565b6000819050919050565b600061187561187061186b84611286565b611850565b611286565b9050919050565b6000819050919050565b61188f8361185a565b6118a361189b8261187c565b8484546117fe565b825550505050565b600090565b6118b86118ab565b6118c3818484611886565b505050565b5b818110156118e7576118dc6000826118b0565b6001810190506118c9565b5050565b601f82111561192c576118fd816117cc565b611906846117e1565b81016020851015611915578190505b611929611921856117e1565b8301826118c8565b50505b505050565b600082821c905092915050565b600061194f60001984600802611931565b1980831691505092915050565b6000611968838361193e565b9150826002028217905092915050565b6119818261129f565b67ffffffffffffffff81111561199a57611999610f72565b5b6119a4825461179b565b6119af8282856118eb565b600060209050601f8311600181146119e257600084156119d0578287015190505b6119da858261195c565b865550611a42565b601f1984166119f0866117cc565b60005b82811015611a18578489015182556001820191506020850194506020810190506119f3565b86831015611a355784890151611a31601f89168261193e565b8355505b6001600288020188555050505b505050505050565b60006060820190508181036000830152611a6481866112e5565b90508181036020830152611a7881856112e5565b9050611a876040830184611290565b94935050505056fea2646970667358221220d3d5ed26cd7fc0c0b8a33141bf57c10088fec3f6c9dd222360ca5e9bfe7a4ef964736f6c63430008180033",
  "linkReferences": {},
  "deployedLinkReferences": {}
}